:100000000C9446000C9465000C9465000C946500FB
:100010000C9465000C9465000C9465000C946500CC
:100020000C9465000C9465000C9465000C946500BC
:100030000C9465000C9465000C9465000C94F80019
:100040000C9465000C9465000C9465000C9465009C
:100050000C9465000C9465000C9465000C9465008C
:100060000C9465000C9465000C9465000C9465007C
:100070000C9465000C9465000C9465000C9465006C
:100080000C9465000C9465000C94650011241FBE4F
:10009000CFEFD0E1DEBFCDBF12E0A0E0B1E0E4E100
:1000A000F5E600E00BBF02C007900D92A837B1073C
:1000B000D9F719E0A8E7B2E001C01D92A539B10750
:1000C000E1F70E94A6030C9488320C940000DF93A1
:1000D000CF93CDB7DEB781E390E02FEFFC01208313
:1000E00082E390E0FC01108280E390E02FEFFC01BE
:1000F000208382E290E02FEFFC01208383E290E0F6
:10010000FC01108281E290E02FEFFC01208381E668
:1001100090E02FEFFC01208382E690E0FC0110824A
:1001200080E290E02FEFFC012083CF91DF910895D2
:100130000F931F93DF93CF93CDB7DEB728970FB6FA
:10014000F894DEBF0FBECDBF83E590E02EE0FC014A
:10015000208382E590E0FC01108280E092E1AAE732
:10016000B0E089839A83AB83BC8380E090EDA7E005
:10017000B0E08D839E83AF83B88701E510E089816D
:100180009A81AB81BC81880F991FAA1FBB1F2D814B
:100190003E814F815885BC01CD010E946632DA0153
:1001A000C9010196A11DB11DB695A7959795879593
:1001B0008150F801808387E590E027E530E0F90180
:1001C00020812260FC01208386E590E026E530E076
:1001D000F90120812260FC01208328960FB6F89453
:1001E000DEBF0FBECDBFCF91DF911F910F9108955C
:1001F0001F920F920FB60F9200905B000F92112486
:100200002F933F934F935F936F937F938F939F931E
:10021000AF93BF93EF93FF93DF93CF93CDB7DEB749
:100220000E94530CCF91DF91FF91EF91BF91AF915D
:100230009F918F917F916F915F914F913F912F91FE
:100240000F9000925B000F900FBE0F901F901895BB
:10025000DF93CF93CDB7DEB781E390E02FEFFC01C2
:10026000208380E390E02FEFFC01208382E390E085
:100270002FEFFC01208387E390E02FEFFC01208328
:1002800086E390E02FEFFC01208382E290E02FEFE5
:10029000FC01208381E290E02FEFFC01208383E2C8
:1002A00090E02FEFFC012083CF91DF910895DF9341
:1002B000CF930F92CDB7DEB78983F8948981882FC9
:1002C00090E08430910509F446C08530910584F4AE
:1002D0008130910511F1823091051CF40097C1F035
:1002E0006CC08230910519F18330910551F165C0E0
:1002F0008630910509F443C086309105B4F187300A
:10030000910509F446C08830910509F44CC055C0E8
:1003100082E390E0FC01108250C082E390E022E38F
:1003200030E0F90120812E7FFC01208346C082E36A
:1003300090E022E330E0F90120812D7FFC01208351
:100340003CC082E390E022E330E0F90120812B7F82
:10035000FC01208332C082E390E022E330E0F90127
:100360002081277FFC01208328C082E390E022E3E4
:1003700030E0F90120812F7EFC0120831EC082E342
:1003800090E022E330E0F90120812F7DFC01208301
:1003900014C082E390E022E330E0F90120812F7B5A
:1003A000FC0120830AC082E390E022E330E0F901FF
:1003B00020812F77FC012083000078940F90CF914B
:1003C000DF910895DF93CF930F92CDB7DEB7898386
:1003D000F8948981882F90E08430910509F447C012
:1003E0008530910584F48130910519F182309105B1
:1003F0001CF40097C1F06DC08230910521F183306B
:10040000910559F166C08630910509F444C08630E3
:100410009105BCF18730910509F447C088309105FA
:1004200009F44DC056C082E390E02FEFFC01208319
:1004300050C082E390E022E330E0F90120812160A6
:10044000FC01208346C082E390E022E330E0F90122
:1004500020812260FC0120833CC082E390E022E303
:1004600030E0F90120812460FC01208332C082E366
:1004700090E022E330E0F90120812860FC01208334
:1004800028C082E390E022E330E0F901208120617E
:10049000FC0120831EC082E390E022E330E0F901FA
:1004A00020812062FC01208314C082E390E022E3DB
:1004B00030E0F90120812064FC0120830AC082E33E
:1004C00090E022E330E0F90120812068FC012083E4
:1004D000000078940F90CF91DF910895DF93CF9330
:1004E0000F92CDB7DEB78983F8948981882F90E089
:1004F0008430910509F44FC08530910584F4813032
:10050000910541F1823091051CF40097C9F07AC041
:100510008230910551F18330910591F173C086309D
:10052000910509F44EC0863091050CF43FC0873028
:10053000910509F451C08830910509F458C062C092
:1005400082E390E022E330E0F90120812095FC0174
:10055000208358C082E390E022E330E0F90130814B
:1005600021E02327FC0120834DC082E390E022E3B9
:1005700030E0F901308122E02327FC01208342C0D2
:1005800082E390E022E330E0F901308124E0232788
:10059000FC01208337C082E390E022E330E0F901E0
:1005A000308128E02327FC0120832CC082E390E0E7
:1005B00022E330E0F901308120E12327FC01208390
:1005C00021C082E390E022E330E0F901308120E2B3
:1005D0002327FC01208316C082E390E022E330E071
:1005E000F901308120E42327FC0120830BC082E342
:1005F00090E022E330E0F901308120E82327FC017C
:100600002083000078940F90CF91DF910895DF93BD
:10061000CF9300D0CDB7DEB79A83898382E390E091
:100620002FE0FC01208383E290E02FE0FC01208397
:1006300082E690E02FE0FC01208382E090E00E94BF
:100640005430ECCFDF93CF9300D0CDB7DEB79A8391
:10065000898380919A0390919B0328E732E065E0BB
:1006600070E0A9010E94D72982E390E020EFFC010D
:10067000208383E290E020EFFC01208382E690E07B
:1006800020EFFC01208382E090E00E9454308091B2
:100690009A0390919B030E94052BDBCFDF93CF93AE
:1006A00000D0CDB7DEB79A83898380919A03909169
:1006B0009B03409100015091010128E732E0BA010B
:1006C000A9010E94D72982E690E022E630E0F901F4
:1006D00020812095FC01208382E090E00E9454302C
:1006E00080919A0390919B030E94052BDECFDF93AC
:1006F000CF93CDB7DEB787E093E028ED32E060E03E
:1007000070E0A90121E00E940D2C82E293E028E331
:1007100033E060E070E0A90122E00E940D2C8EE43D
:1007200093E028E933E060E070E0A90123E00E9453
:100730000D2C0E94980081E090E00E94A8289093E0
:100740009B0380939A03CF91DF910895DF93CF931A
:10075000CDB7DEB70E9467000E9482040E94770333
:100760000E94FC04FDCFDF93CF93CDB7DEB7279770
:100770000FB6F894DEBF0FBECDBF9B838A837D8307
:100780006C835F834E838E819F81009711F480E09C
:1007900044C08A819B81009739F48E819F8124E037
:1007A000FC01208380E039C08C819D81009739F461
:1007B0008E819F812CE0FC01208380E02EC08091FF
:1007C0009903882339F08E819F8121E1FC012083E8
:1007D00080E023C08A819B81FC018081882F90E08A
:1007E00001978430910598F4F8948A819B819C014B
:1007F000225F3F4F8C819D81B9010E94F00989835E
:1008000078948E819F81FC011082898106C08E813F
:100810009F8121E0FC01208380E027960FB6F894A9
:10082000DEBF0FBECDBFCF91DF910895DF93CF9391
:10083000CDB7DEB727970FB6F894DEBF0FBECDBF9A
:100840009B838A837D836C835F834E838E819F81AC
:10085000009709F44DC08A819B81009731F48E8105
:100860009F8124E0FC01208344C08C819D810097FE
:1008700031F48E819F812CE0FC0120833AC080916D
:100880009903882331F08E819F8122E1FC0120832E
:1008900030C08A819B81FC018081882F90E0019784
:1008A0008430910550F4F8948C819D810E94250A32
:1008B00089838981883038F40DC08E819F8121E041
:1008C000FC01208316C078948E819F812BE0FC016F
:1008D00020830FC08A819B810E962C813D81B901B6
:1008E0000E94F00978948E819F81FC01108201C0E2
:1008F000000027960FB6F894DEBF0FBECDBFCF9194
:10090000DF910895DF93CF93CDB7DEB70E94A00C9F
:100910000E943A080E9461080E94D9080E94D907E3
:100920000E9433160E9426280E9490080E94A70C5D
:100930000E94780ECF91DF910895DF93CF93CDB7CA
:10094000DEB780919D03813049F4809199038F3FF8
:1009500029F0809199038F5F80939903CF91DF9164
:100960000895DF93CF93CDB7DEB780919D0381309B
:1009700009F03FC0F89480919903882329F0809171
:10098000990381508093990380919903882381F57D
:1009900080919C03882361F50E94C9099091A2036C
:1009A00080915704981721F18091A203882F90E03D
:1009B000880F991F8B5E964FFC01808191819093E7
:1009C0009B0480939A0480915B0490915C04A091B5
:1009D0005D04B0915E040196A11DB11D80935B047E
:1009E00090935C04A0935D04B0935E040E94200C7D
:1009F0007894CF91DF910895DF93CF93CDB7DEB791
:100A000080919D038823F9F40E94C9098091A20373
:100A1000809357048091A203882F90E0880F991F3C
:100A20008B5E964FFC018081918190939B04809313
:100A30009A0480919A0490919B049093AA048093C5
:100A4000A9040E94960BCF91DF910895DF93CF9375
:100A500000D00F92CDB7DEB70E94710EF89480914E
:100A6000AB049091AC04A091AD04B091AE0401969A
:100A7000A11DB11D8093AB049093AC04A093AD0471
:100A8000B093AE04789480919D03813009F0A0C0AA
:100A900080915A04882F90E08130910541F0823096
:100AA000910539F0009759F481E08B830DC01B82CA
:100AB0000BC081E08B8381E080935A0405C081E004
:100AC0008B8310925A0400008B81882309F47FC025
:100AD00080915804909159049A83898370C0F89446
:100AE00089819A81FC018789908D009709F45FC004
:100AF00089819A81FC018789908D9C012150304029
:100B000089819A81FC01308F278B89819A81FC0130
:100B10008789908D009709F04AC089819A81FC01EC
:100B2000818D882F90E087739070009781F0898184
:100B30009A81FC01818D282F287C89819A81FC0172
:100B4000218F89819A8121E0FC01228F04C0898153
:100B50009A81FC01128E89819A81FC01818D882FF6
:100B600090E088709070009711F589819A81FC015E
:100B7000978D80919E04892B80939E0489819A8110
:100B8000FC01858D882F90E029813A81F901258D1E
:100B9000222F30E021563B4FF901408129813A81D3
:100BA000F901268D242B81569B4FFC0120838981DE
:100BB0009A81FC01868597859A83898378948981B7
:100BC0009A81FC01838D8F3309F089CF01C0000029
:100BD0000F900F900F90CF91DF910895DF93CF93F7
:100BE000CDB7DEB78DE191E0CF91DF910895DF932E
:100BF000CF93CDB7DEB72D970FB6F894DEBF0FBEFB
:100C0000CDBF998788877B876A874C872D878885A2
:100C10009985FC018581882F90E08E5F9E4FFC01B5
:100C2000808189838981282F30E081E090E002C0B3
:100C3000880F991F2A95E2F78A838981882F90E08F
:100C400028853985820F931F0696FC018081882FA5
:100C500090E08E5F9E4FFC0180818B838B81282FDB
:100C600030E081E090E002C0880F991F2A95E2F7FA
:100C70008C838981982F990F990F990F8B81890FF8
:100C80008D838981882F90E02981222F30E048854B
:100C90005985240F351F2A5F3F4FF9012081322FDC
:100CA0002C8120952323422F28853985820F931F7D
:100CB0000696FC0140838981882F90E0288539853C
:100CC000820F931F0696FC018081882369F4888532
:100CD0009985FC018581982F8A8180958923282F09
:100CE00088859985FC0125838D81882F90E0880F68
:100CF000991F8B5E964FFC01808191819F838E832B
:100D00008E819F81FC01108E178A8E819F81FC014C
:100D1000138A128A8E819F812A853B85FC01358B3F
:100D2000248B8E819F812D85FC01228F8E819F8156
:100D3000FC01818D982F8C8580958923282F8E81A9
:100D40009F81FC01218F8E819F81FC01818D8823F1
:100D5000B1F490919E048A81892B80939E048981AD
:100D6000882F90E02981222F30E021563B4FF90156
:100D700030812C81232B81569B4FFC0120838D8158
:100D80002D960FB6F894DEBF0FBECDBFCF91DF9189
:100D90000895DF93CF9300D00F92CDB7DEB79B833A
:100DA0008A838091A9049091AA042A813B81FC0145
:100DB000338B228B8091A9049091AA04FC01858D2C
:100DC00089838981882F90E02981222F30E0215664
:100DD0003B4FF9012081422F2091A9043091AA04B0
:100DE000F901268D2095242381569B4FFC012083F9
:100DF0008981882F90E081569B4FFC018081882358
:100E000069F48091A9049091AA04FC01878D982F20
:100E1000909580919E04892380939E048091A904DB
:100E20009091AA04FC01858D882F90E02091A9045F
:100E30003091AA04F901258D222F30E04A815B818F
:100E4000240F351F2A5F3F4FF90140812091A904EB
:100E50003091AA04F901268D422B2A813B81820F11
:100E6000931F0696FC0140838A819B81FC012581AA
:100E70008091A9049091AA04FC01878D282B8A8176
:100E80009B81FC0125830F900F900F90CF91DF91F4
:100E90000895DF93CF9300D00F92CDB7DEB79B8339
:100EA0008A838091A9049091AA04FC01858D89838D
:100EB0008981882F90E02981222F30E04A815B814F
:100EC000240F351F2A5F3F4FF9012081422F2091C7
:100ED000A9043091AA04F901268D20952423422FDC
:100EE0002A813B81820F931F0696FC0140838981F2
:100EF000882F90E02A813B81820F931F0696FC0188
:100F00008081882391F48A819B81FC018581282F2F
:100F10008091A9049091AA04FC01878D8095822379
:100F2000282F8A819B81FC0125838091A9049091BF
:100F3000AA04FC01128E8091A9049091AA04FC01DC
:100F4000118E8091A9049091AA04FC01138A128A3F
:100F50000F900F900F90CF91DF910895DF93CF9373
:100F600000D000D00F92CDB7DEB79D838C838C81EB
:100F70009D81FC0115828C819D8106969A838983CF
:100F80001B820CC089819A81FC01108289819A811F
:100F900001969A8389838B818F5F8B838B818830C5
:100FA00088F30F900F900F900F900F90CF91DF91DB
:100FB0000895DF93CF9300D000D000D0CDB7DEB737
:100FC0008FEE94E06CED70E00E9436098FEE94E0B5
:100FD0009C838B8385E095E09E838D831A821982A2
:100FE00023C08B819C81FC0110828B819C812D818F
:100FF0003E81FC01328321838B819C812FE3FC01A4
:1010000026878B819C81FC0117868B819C8146966B
:101010009C838B838D819E8146969E838D8389815F
:101020009A8101969A83898389819A818930910571
:10103000C0F28B819C81FC0110828B819C81FC0120
:10104000128211828B819C812FE3FC0126878B8188
:101050009C81FC0117868FEE94E09093A804809306
:10106000A70426960FB6F894DEBF0FBECDBFCF9172
:10107000DF910895DF93CF93CDB7DEB71092AB0425
:101080001092AC041092AD041092AE041092990329
:1010900010929C031092610410929D0310925B04C5
:1010A00010925C0410925D0410925E0410929E03F4
:1010B00010929F031092A0031092A103CF91DF9191
:1010C0000895DF93CF9300D00F92CDB7DEB7109283
:1010D0009E048FE994E09B838A8319820CC08A81E5
:1010E0009B81FC0110828A819B8101969B838A836C
:1010F00089818F5F89838981883088F310925704B2
:101100001092A20310929B0410929A041092AA04C7
:101110001092A9040F900F900F90CF91DF91089536
:101120008F929F92AF92BF92CF92DF92EF92FF92F7
:101130000F931F93DF93CF930F92CDB7DEB700D0FD
:101140004DB75EB74F5F5F4F84E49AE02EEE34E018
:10115000EFEAF4E063E070E0DA016D937C9360E025
:1011600070E0A9012FE30FEF1FEF7F01AA24BB243A
:1011700065016894A6F8882499240E94982C0F9001
:101180000F9022E032E08FE3B9019E012F5F3F4FC5
:10119000A9010E94B32D0F90CF91DF911F910F9164
:1011A000FF90EF90DF90CF90BF90AF909F908F9087
:1011B0000895DF93CF9300D000D00F92CDB7DEB764
:1011C0008BEC95E068E473E00E94360985E199E0D4
:1011D00060E870E00E9436098BEC95E09B838A837F
:1011E00083EF95E09D838C8319821DC08A819B814A
:1011F0002C813D81FC01378726878A819B812FE3E3
:10120000FC0120A38A819B81FC0111A28A819B8120
:1012100088969B838A838C819D8188969D838C830D
:1012200089818F5F89838981843100F38A819B81E1
:10123000FC01178616868A819B812FE3FC0120A37F
:101240008A819B81FC0111A21092590410925804CA
:101250008BEC95E09093600480935F040F900F9067
:101260000F900F900F90CF91DF910895DF93CF9360
:1012700000D000D0CDB7DEB79A8389837C836B839F
:101280000EC089819A81FC01108289819A81019620
:101290009A8389838B819C8101979C838B838B812B
:1012A0009C81009771F70F900F900F900F90CF9146
:1012B000DF910895DF93CF9300D000D000D0CDB759
:1012C000DEB79A8389837C836B835E834D8317C0EB
:1012D0008B819C81FC01208189819A81FC01208382
:1012E00089819A8101969A8389838B819C81019659
:1012F0009C838B838D819E8101979E838D838D81BD
:101300009E81009729F726960FB6F894DEBF0FBE90
:10131000CDBFCF91DF910895DF93CF93CDB7DEB7E7
:10132000F89480919903882381F580919C03882308
:1013300061F50E94C9099091A20380915704981702
:1013400021F18091A203882F90E0880F991F8B5E76
:10135000964FFC018081918190939B0480939A0425
:1013600080915B0490915C04A0915D04B0915E0457
:101370000196A11DB11D80935B0490935C04A09322
:101380005D04B0935E040E94C60B7894CF91DF9108
:101390000895DF93CF930F92CDB7DEB780919E046F
:1013A000882F90E08E5F9E4FFC0180818983898128
:1013B000282F220F220F220F8981882F90E081563B
:1013C0009B4FFC018081882F90E08E5F9E4FFC0137
:1013D0008081820F8093A2030F90CF91DF910895B7
:1013E000DF93CF9300D000D00F92CDB7DEB79B83B1
:1013F0008A837D836C83198215C08C819D81FC0159
:1014000020818A819B81FC0120838A819B810196B6
:101410009B838A838C819D8101969D838C838981A6
:101420008F5F89838C819D81FC018081882329F7CE
:101430008A819B81FC01108289810F900F900F900F
:101440000F900F90CF91DF910895DF93CF9300D04D
:101450000F92CDB7DEB79B838A83198208C08A8139
:101460009B8101969B838A8389818F5F89838A818F
:101470009B81FC018081882391F789810F900F90D7
:101480000F90CF91DF910895DF93CF9300D0CDB728
:10149000DEB79A838983F89480919E0390919F038D
:1014A000A091A003B091A1030196A11DB11D80934D
:1014B0009E0390939F03A093A003B093A1037894FD
:1014C0000E94C60CE8CFAF92BF92CF92DF92EF920C
:1014D000FF920F931F93DF93CF93CDB7DEB7619742
:1014E0000FB6F894DEBF0FBECDBF8B837D836C83B8
:1014F0005F834E8339872887EA86FB860C871D87A2
:10150000DF86CE86B98AA88AF89480915F0490918C
:1015100060049A83898389819A81009709F4F3C0D2
:1015200089819A81FC0186859785909360048093D8
:101530005F04789489819A812C813D81FC013183FB
:10154000208389819A812B81FC01238F89819A8153
:10155000FC01118E89819A81FC01128E89819A8108
:10156000FC01108E178A89819A812E853F85FC01A6
:101570003383228329813A818A859B85AC85BD8509
:10158000F90186839783A087B18789819A812E810B
:101590003F81FC013583248389819A812889398997
:1015A000FC013387228789819A8128853985FC014E
:1015B000358724878B81282F269526952695898126
:1015C0009A81FC01258F89819A81FC01858D282FC4
:1015D00030E081E090E002C0880F991F2A95E2F781
:1015E000282F89819A81FC01278F8B81282F2770D2
:1015F00089819A81FC01248F89819A81FC01848DE3
:10160000282F30E081E090E002C0880F991F2A95D2
:10161000E2F7282F89819A81FC01268F89819A819E
:10162000FC01138A128A89819A81FC01158A148A25
:1016300089819A812FE3FC0120A389819A81FC0191
:1016400011A289819A810E94650E89819A810E94E6
:10165000AE0CF8948B81882F90E0880F991F8B5ED9
:10166000964F29813A81FC013183208320915804CF
:101670003091590489819A81FC01378726878981B5
:101680009A81FC01118A108A809158049091590422
:10169000009749F0809158049091590429813A812A
:1016A000FC01318B208B89819A819093590480931E
:1016B000580489819A81FC01978D80919E04892B21
:1016C00080939E0489819A81FC01858D882F90E00A
:1016D00029813A81F901258D222F30E021563B4F97
:1016E000F901408129813A81F901268D242B815607
:1016F0009B4FFC012083809161048F5F8093610484
:10170000789480E002C0789482E461960FB6F894F1
:10171000DEBF0FBECDBFCF91DF911F910F91FF9024
:10172000EF90DF90CF90BF90AF90089500919D0310
:10173000039500939D03E0919A04F0919B0401911D
:101740000DBF01910EBF0F910FBFFF91EF91DF9180
:10175000CF91BF91AF919F918F917F916F915F9149
:101760004F913F912F911F910F91FF90EF90DF903C
:10177000CF90BF90AF909F908F907F906F905F9031
:101780004F903F902F901F900F9008950F921F92AF
:101790002F923F924F925F926F927F928F929F9281
:1017A000AF92BF92CF92DF92EF92FF920F931F936F
:1017B0002F933F934F935F936F937F938F939F9359
:1017C000AF93BF93CF93DF93EF93FF930FB70F9335
:1017D0000EB702930DB7029371D20091A20300934A
:1017E0005704E0919A04F0919B04E093A904F093CC
:1017F000AA0401910DBF01910EBF0F910FBFFF9180
:10180000EF91DF91CF91BF91AF919F918F917F9198
:101810006F915F914F913F912F911F910F91FF9089
:10182000EF90DF90CF90BF90AF909F908F907F9080
:101830006F905F904F903F902F901F900F90089562
:101840000091A20300935704E0919A04F0919B0445
:10185000E093A904F093AA0401910DBF01910EBF7A
:101860000F910FBFFF91EF91DF91CF91BF91AF919A
:101870009F918F917F916F915F914F913F912F91A8
:101880001F910F91FF90EF90DF90CF90BF90AF909E
:101890009F908F907F906F905F904F903F902F9090
:1018A0001F900F9008950F921F922F923F924F9288
:1018B0005F926F927F928F929F92AF92BF92CF92E0
:1018C000DF92EF92FF920F931F932F933F934F93CB
:1018D0005F936F937F938F939F93AF93BF93CF93B8
:1018E000DF93EF93FF930FB70F930E945E0E0E945A
:1018F0009D040E9426050E94B1040F910FBFFF9125
:10190000EF91DF91CF91BF91AF919F918F917F9197
:101910006F915F914F913F912F911F910F91FF9088
:10192000EF90DF90CF90BF90AF909F908F907F907F
:101930006F905F904F903F902F901F900F90089561
:10194000DF93CF93CDB7DEB7CF91DF910895DF93CB
:10195000CF93CDB7DEB7CF91DF910895DF93CF93CB
:1019600000D0CDB7DEB79A8389830F900F90CF91C7
:10197000DF910895DF93CF9300D0CDB7DEB79A8380
:1019800089830F900F90CF91DF910895DF93CF93CC
:10199000CDB7DEB7CF91DF910895DF93CF93CDB769
:1019A000DEB7CF91DF910895DF93CF93CDB7DEB748
:1019B0002A970FB6F894DEBF0FBECDBF9C838B83F2
:1019C0007E836D8358874F833A8729878F819885D7
:1019D0009A8389838B819C81282F89819A81FC013C
:1019E000208389819A8101979A8389838B819C8145
:1019F000892F9927282F89819A81FC012083898149
:101A00009A8101979A83898389819A81FC01108246
:101A100089819A8101979A83898389819A8121E0BA
:101A2000FC01208389819A8101979A838983898126
:101A30009A8122E0FC01208389819A8101979A830F
:101A4000898389819A8123E0FC01208389819A819D
:101A500001979A83898389819A8124E0FC012083FC
:101A600089819A8101979A83898389819A8125E066
:101A7000FC01208389819A8101979A8389838981D6
:101A80009A8126E0FC01208389819A8101979A83BB
:101A9000898389819A8127E0FC01208389819A8149
:101AA00001979A83898389819A8128E0FC012083A8
:101AB00089819A8101979A83898389819A8129E012
:101AC000FC01208389819A8101979A838983898186
:101AD0009A8120E1FC01208389819A8101979A8370
:101AE000898389819A8121E1FC01208389819A81FE
:101AF00001979A83898389819A8122E1FC0120835D
:101B000089819A8101979A83898389819A8123E1C6
:101B1000FC01208389819A8101979A838983898135
:101B20009A8124E1FC01208389819A8101979A831B
:101B3000898389819A8125E1FC01208389819A81A9
:101B400001979A83898389819A8126E1FC01208308
:101B500089819A8101979A83898389819A8127E172
:101B6000FC01208389819A8101979A8389838981E5
:101B70009A8128E1FC01208389819A8101979A83C7
:101B8000898389819A8129E1FC01208389819A8155
:101B900001979A83898389819A8120E2FC012083BD
:101BA00089819A8101979A83898389819A8121E227
:101BB000FC01208389819A8101979A838983898195
:101BC0009A8122E2FC01208389819A8101979A837C
:101BD000898389819A8123E2FC01208389819A810A
:101BE00001979A8389838D819E81282F89819A818B
:101BF000FC01208389819A8101979A8389838D8151
:101C00009E81892F9927282F89819A81FC01208321
:101C100089819A8101979A83898389819A8126E2B1
:101C2000FC01208389819A8101979A838983898124
:101C30009A8127E2FC01208389819A8101979A8306
:101C4000898389819A8128E2FC01208389819A8194
:101C500001979A83898389819A8129E2FC012083F3
:101C600089819A8101979A83898389819A8120E366
:101C7000FC01208389819A8101979A8389838981D4
:101C80009A8121E3FC01208389819A8101979A83BB
:101C9000898389819A8120E8FC01208389819A8146
:101CA00001979A83898389819A812A960FB6F8943D
:101CB000DEBF0FBECDBFCF91DF910895DF93CF93ED
:101CC000CDB7DEB7CF91DF910895DF93CF9300D0EA
:101CD000CDB7DEB79A8389830F900F90CF91DF91B4
:101CE0000895DF93CF93CDB7DEB7CF91DF910895FD
:101CF000DF93CF9300D0CDB7DEB78AE092E09A832E
:101D000089838CE092E09A83898382E192E09A83CE
:101D1000898384E192E09A83898380E192E09A83C7
:101D2000898386E192E09A83898388E192E09A83AD
:101D300089838AE192E09A8389838CE192E09A8395
:101D400089838EE192E09A83898380E292E09A838C
:101D5000898382E292E09A83898384E292E09A8383
:101D6000898386E292E09A83898388E292E09A836B
:101D700089838AE292E09A8389838CE292E09A8353
:101D800089838EE292E09A83898380E392E09A834A
:101D9000898382E392E09A83898384E392E09A8341
:101DA000898386E392E09A83898388E392E09A8329
:101DB00089838AE392E09A8389838CE392E09A8311
:101DC00089838EE392E09A83898380E492E09A8308
:101DD000898382E492E09A83898384E492E09A83FF
:101DE000898386E492E09A83898388E492E09A83E7
:101DF00089838AE492E09A8389838CE492E09A83CF
:101E000089838EE492E09A83898380E592E09A83C5
:101E1000898382E592E09A83898384E592E09A83BC
:101E2000898386E592E09A83898388E592E09A83A4
:101E300089838AE592E09A8389838CE592E09A838C
:101E400089838EE592E09A83898380E692E09A8383
:101E5000898382E692E09A83898386E792E09A8377
:101E600089830F900F90CF91DF910895DF93CF93E7
:101E7000CDB7DEB729970FB6F894DEBF0FBECDBF42
:101E80009D838C836E834F833987288788859985C6
:101E9000009711F480E0D2C08C819D81009739F4C5
:101EA000888599852EE6FC01208380E0C7C08C815F
:101EB0009D81FC018081853039F08885998521E0FC
:101EC000FC01208380E0BAC08F8180788B838B8176
:101ED000882331F08F818F778F8381E08A8301C0DF
:101EE0001A8288859985FC011082F8948F81882F49
:101EF00090E08130910509F476C08230910524F498
:101F0000009709F44DC091C08230910521F08330D3
:101F1000910521F18AC08C819D81FC0193818E8184
:101F20008923898399818E81981789F48A818130E8
:101F300099F48C819D81FC018381982F8981809502
:101F40008923282F8C819D81FC01238305C08885EE
:101F5000998520E7FC01208378946FC08C819D8156
:101F6000FC0193818E81892389838981882389F06B
:101F70008A81813099F48C819D81FC018381982F25
:101F8000898180958923282F8C819D81FC01238361
:101F900005C08885998520E7FC01208378944DC091
:101FA0008C819D81FC018381982F90958E8189235E
:101FB000898399818E81981779F48A81813089F497
:101FC0008C819D81FC0193818981292F282B8C8113
:101FD0009D81FC01238305C08885998520E7FC014C
:101FE000208378942AC08C819D81FC018381982F65
:101FF00090958E81892389838981882379F08A81CC
:10200000813089F48C819D81FC0193818981292F04
:10201000282B8C819D81FC01238305C088859985AF
:1020200020E7FC012083789408C078941982888581
:1020300099852FE6FC0120830000898129960FB63F
:10204000F894DEBF0FBECDBFCF91DF910895DF932F
:10205000CF9300D000D00F92CDB7DEB78B837D83B6
:102060006C838C819D81009719F480E090E048C0DA
:1020700080919903882341F08C819D8120E1FC01AE
:10208000208380E090E03CC0F89480911309909107
:1020900014099A83898389819A81009749F18091F3
:1020A000130990911409FC01818192819093140984
:1020B0008093130989819A8125E0FC01208389811D
:1020C0009A812B81FC01238389819A81FC011282F0
:1020D000118289819A812FE3FC01248389819A816D
:1020E000FC01158278948C819D81FC01108206C0D0
:1020F00078948C819D8122E7FC01208389819A81DB
:102100000F900F900F900F900F90CF91DF91089547
:10211000DF93CF93CDB7DEB72A970FB6F894DEBF23
:102120000FBECDBF9F838E8368875A874987898575
:102130009A85009719F48E819F81C3C08E819F81FB
:10214000009741F489859A852EE6FC0120838E81D3
:102150009F81B7C080919903882341F089859A8532
:102160002FE0FC0120838E819F81ABC08E819F81F7
:10217000FC018081853041F089859A8521E0FC0150
:1021800020838E819F819DC0F8948E819F81FC0168
:1021900081819281009719F081E0898301C01982C1
:1021A0008885882F90E0009721F081309105B9F162
:1021B0007BC08981882341F58E819F812FE3FC01BB
:1021C00024838E819F81FC0115828E819F81FC0179
:1021D000108220911309309114098E819F81FC0196
:1021E000328321838E819F81FC0113828E819F81A6
:1021F0009093140980931309789489859A85FC013A
:1022000010821D821C825BC0789489859A8529E49E
:10221000FC0120838E819F819D838C8350C08E81A1
:102220009F81FC01818192819B838A830CC08A817A
:102230009B8160E00E9494168A819B81FC018081D1
:1022400091819B838A838A819B81009781F78E810C
:102250009F812FE3FC0124838E819F81FC011582E5
:102260008E819F81FC011082209113093091140905
:102270008E819F81FC01328321838E819F81FC01AD
:1022800013828E819F81909314098093130978940F
:102290008981813011F40E948C0989859A85FC011D
:1022A00010821D821C820BC0789489859A8527E054
:1022B000FC0120838E819F819D838C8300008C8113
:1022C0009D812A960FB6F894DEBF0FBECDBFCF9189
:1022D000DF910895DF93CF93CDB7DEB727970FB681
:1022E000F894DEBF0FBECDBF9B838A837D836C8352
:1022F0005F834E838E819F81009711F480E041C0FF
:102300008A819B81009739F48E819F812EE6FC01A2
:10231000208380E036C08C819D81009739F48E81C6
:102320009F812CE0FC01208380E02BC080919903E9
:10233000882339F08E819F8121E1FC01208380E098
:1023400020C0F8948A819B81FC018081853041F016
:1023500078948E819F8121E0FC01208380E011C070
:102360008A819B819C012C5F3F4F8C819D81B901AB
:102370000E94F009898378948E819F81FC011082EC
:10238000898127960FB6F894DEBF0FBECDBFCF91DF
:10239000DF910895DF93CF93CDB7DEB727970FB6C0
:1023A000F894DEBF0FBECDBF9B838A837D836C8391
:1023B0005F834E838E819F81009709F44AC08A8192
:1023C0009B81009731F48E819F812EE6FC01208352
:1023D00041C08C819D81009731F48E819F812CE0DA
:1023E000FC01208337C080919903882331F08E81CE
:1023F0009F8122E1FC0120832DC0F8948A819B817A
:10240000FC018081853039F078948E819F8121E0B4
:10241000FC0120831FC08C819D810E94250A898335
:102420008981803238F078948E819F8123E7FC0186
:10243000208310C08A819B8104962C813D81B90143
:102440000E94F00978948E819F81FC011082000027
:1024500001C0000027960FB6F894DEBF0FBECDBFB7
:10246000CF91DF9108950F931F93DF93CF93CDB753
:10247000DEB766970FB6F894DEBF0FBECDBF988B60
:102480008F87698B4A8B3C8B2B8B1E8B0D8B8D8999
:102490009E89009711F480E0ADC18F8598890097DF
:1024A00039F48D899E892EE6FC01208380E0A2C14B
:1024B00080919903882339F08D899E8922E0FC015F
:1024C000208380E097C180919C03882339F08D8917
:1024D0009E892DE0FC01208380E08CC18F85988946
:1024E000FC018081853039F08D899E8921E0FC01D5
:1024F000208380E07FC18A8980788A838A818823CB
:1025000031F08A898F778A8B81E0898301C01982B3
:10251000F8948A89882F90E08130910509F4B5C03C
:102520008230910524F4009709F477C0E5C0823029
:10253000910521F083309105C9F1DEC08F8598891E
:10254000FC019381898989238B839B8189899817D1
:10255000F1F48981813069F48F859889FC01838148
:10256000982F8B8180958923282F8F859889FC014E
:1025700023838091A9049091AA042B81FC01268BCE
:1025800078948D899E89FC0110828B8133C18F855F
:1025900098899E012B5F3F4FEB89FC89B9014989DE
:1025A0002A898F010E9482157894AFC08F859889FF
:1025B000FC019381898989238B838B818823F1F0A6
:1025C0008981813069F48F859889FC018381982FF6
:1025D0008B8180958923282F8F859889FC012383FF
:1025E0008091A9049091AA042B81FC01268B7894F8
:1025F0008D899E89FC0110828B81FCC08F85988912
:102600009E012B5F3F4FEB89FC89B90149892A89DB
:102610008F010E948215789478C08F859889FC017B
:102620008381982F9095898989238B839B818989C0
:102630009817E1F48981813059F48F859889FC01DC
:1026400093818B81292F282B8F859889FC012383E7
:102650008091A9049091AA042B81FC01268B789487
:102660008D899E89FC0110828B81C4C08F859889D9
:102670009E012B5F3F4FEB89FC89B90149892A896B
:102680008F010E948215789440C08F859889FC0143
:102690008381982F9095898989238B838B818823C7
:1026A000E1F08981813059F48F859889FC0193810B
:1026B0008B81292F282B8F859889FC01238380917A
:1026C000A9049091AA042B81FC01268B78948D8912
:1026D0009E89FC0110828B818DC08F8598899E0117
:1026E0002B5F3F4FEB89FC89B90149892A898F010A
:1026F0000E948215789409C078941B828D899E89E6
:102700002FE6FC0120838B8175C00E948C09F89410
:102710008091A9049091AA04FC01828D882369F11B
:102720008091A9049091AA04FC01828D8C838091F0
:10273000A9049091AA04FC01128ECE0105960E9474
:10274000F7168091A9049091AA04FC01118E789447
:102750001B828C81882F90E08230910531F08D8929
:102760009E892AE0FC01208306C08D899E892EE087
:10277000FC01208300008B813DC08091A9049091D1
:10278000AA04FC0186898B838981813069F58A8955
:10279000882F90E0992304F1823091058CF08430E9
:1027A0009105D4F48F859889FC018381982F8B81C2
:1027B00080958923282F8F859889FC01238314C055
:1027C0008F859889FC0193818B81292F282B8F85F8
:1027D0009889FC01238308C078948D899E892FE60F
:1027E000FC01208380E006C078948D899E89FC01DD
:1027F00010828B8166960FB6F894DEBF0FBECDBFF8
:10280000CF91DF911F910F910895DF93CF930F9296
:10281000CDB7DEB7F8948091A9049091AA04FC0189
:1028200086898983789489810F90CF91DF9108956B
:10283000DF93CF93CDB7DEB72C970FB6F894DEBFFA
:102840000FBECDBF98878F8369874A873C872B87C8
:102850008B859C85009711F480E00EC18F8198854F
:10286000009739F48B859C852EE6FC01208380E05F
:1028700003C18F819885FC018081853039F08B857B
:102880009C8521E0FC01208380E0F6C0F8948A85D5
:10289000882F90E0009721F08130910579F01AC0DF
:1028A0008F819885FC018381982F89858095892364
:1028B000282F8F819885FC01238314C08F819885F0
:1028C000FC0193818985292F282B8F819885FC0114
:1028D000238308C078948B859C8521E7FC012083A5
:1028E00080E0CAC01B828F819885FC018181928122
:1028F0009A838983AAC089819A81FC018185882F66
:1029000090E08130910509F467C08230910524F48C
:10291000009709F442C07BC08230910521F08330DA
:10292000910501F174C08F819885FC012381898113
:102930009A81FC01808582238C8389819A81FC01A4
:1029400090858C81981709F06AC089819A816C8181
:102950000E9494168D838D81813009F062C081E0E0
:102960008B836CC08F819885FC01238189819A813A
:10297000FC01808582238C838C81882309F453C0D9
:1029800089819A816C810E9494168D838D8181301A
:1029900009F04BC081E08B8351C08F819885FC0189
:1029A0008381282F209589819A81FC01808582234B
:1029B0008C8389819A81FC0190858C819817B9F567
:1029C00089819A816C810E9494168D838D818130DA
:1029D00081F581E08B8332C08F819885FC018381F2
:1029E000282F209589819A81FC01808582238C8300
:1029F0008C81882301F189819A816C810E949416CF
:102A00008D838D818130C9F481E08B8317C07894E8
:102A10008B859C852FE6FC01208380E02DC0000083
:102A20000DC000000BC0000009C0000007C000007E
:102A300005C0000003C0000001C0000089819A8128
:102A4000FC01808191819A83898389819A81009791
:102A500009F051CF78948B81813011F40E948C0958
:102A6000F8948F819885FC0183818E8378948B857F
:102A70009C85FC0110828E812C960FB6F894DEBFE7
:102A80000FBECDBFCF91DF910895DF93CF9300D0DC
:102A900000D00F92CDB7DEB79B838A837D836C8392
:102AA0008C819D81009711F480E024C08A819B81F4
:102AB000009739F48C819D812EE6FC01208380E013
:102AC00019C08A819B81FC018081853039F08C811D
:102AD0009D8121E0FC01208380E00CC0F8948A8174
:102AE0009B81FC018381898378948C819D81FC0189
:102AF000108289810F900F900F900F900F90CF91BF
:102B0000DF9108950F931F93DF93CF93CDB7DEB777
:102B10002B970FB6F894DEBF0FBECDBF9D838C837D
:102B20007F836E83488729871B870A878091A90442
:102B30009091AA042091A9043091AA04F901218D51
:102B40002062FC01218F8091A9049091AA04FC01CC
:102B5000128E8091A9049091AA042A853B85FC01DC
:102B6000308F278B8E819F812885FC0120878E8165
:102B70009F812985FC0121872091A9043091AA0415
:102B80008E819F81FC01358324838C819D81FC0192
:102B9000218132818E819F81FC01318320838E814E
:102BA0009F81FC01138212828E819F812C813D8145
:102BB000FC01378326838C819D81FC018181928178
:102BC0009A83898389819A81009739F089819A81D2
:102BD0002E813F81FC01338322838C819D812E8154
:102BE0003F81FC01328321838091A9049091AA0442
:102BF000FC01858D8B838B81882F90E02B81222F88
:102C000030E021563B4FF9012081422F2091A90449
:102C10003091AA04F901268D2095242381569B4FDB
:102C2000FC0120838B81882F90E081569B4FFC0113
:102C30008081882369F48091A9049091AA04FC0101
:102C4000878D982F909580919E04892380939E0470
:102C50002B960FB6F894DEBF0FBECDBFCF91DF919C
:102C60001F910F910895DF93CF9300D000D000D033
:102C7000CDB7DEB783EA93E064EB70E00E943609DB
:102C800083EA93E09C838B8387EC93E09E838D8320
:102C90001A82198223C08B819C81FC0110828B8156
:102CA0009C812D813E81FC01328321838B819C811B
:102CB0002FE3FC0124838B819C81FC0115828B8195
:102CC0009C8184969C838B838D819E8184969E8338
:102CD0008D8389819A8101969A83898389819A81DA
:102CE00084309105C0F28B819C81FC0110828B8124
:102CF0009C81FC01128211828B819C812FE3FC015B
:102D000024838B819C81FC01158283EA93E090935C
:102D100014098093130926960FB6F894DEBF0FBEF0
:102D2000CDBFCF91DF910895DF93CF9300D000D036
:102D300000D0CDB7DEB79D838C836E838C819D815F
:102D4000FC01848195819B838A838A819B81FC011C
:102D5000108E178A8A819B812E81FC01268B8A81A5
:102D60009B81FC01818D282F2F7D8A819B81FC0115
:102D7000218F8A819B81FC01128E8A819B81FC01BB
:102D8000818D882329F58A819B81FC01978D809113
:102D90009E04892B80939E048A819B81FC01858DF2
:102DA000882F90E02A813B81F901258D222F30E088
:102DB00021563B4FF90140812A813B81F901268D43
:102DC000242B81569B4FFC01208381E0898301C025
:102DD00019828C819D810E94F716898126960FB6F3
:102DE000F894DEBF0FBECDBFCF91DF910895DF9382
:102DF000CF93CDB7DEB728970FB6F894DEBF0FBEDE
:102E0000CDBF98878F838F819885FC0182819381C4
:102E10009A8389838F819885FC01808191819C832D
:102E20008B8389819A810097C1F48F819885FC01F9
:102E3000868197819E838D838D819E812B813C81AC
:102E4000FC01328321838B819C810097C1F08B81AF
:102E50009C81FC011382128212C089819A812B818C
:102E60003C81FC01318320838B819C81009739F068
:102E70008B819C8129813A81FC01338322832896AE
:102E80000FB6F894DEBF0FBECDBFCF91DF9108958E
:102E9000DF93CF9300D000D0CDB7DEB79C838B8378
:102EA0008B819C81009719F480E090E019C08B81A0
:102EB0009C81FC018081813019F080E090E010C09D
:102EC000F8948B819C81FC01818192819A83898312
:102ED0008B819C81FC0112821182789489819A8174
:102EE0000F900F900F900F90CF91DF910895DF9387
:102EF000CF9300D000D0CDB7DEB79C838B83809179
:102F00009903882319F080E090E03DC0F894809107
:102F1000A7049091A8049A8389838091A704909133
:102F2000A804009759F08091A7049091A804FC018F
:102F3000818192819093A8048093A70478948981D9
:102F40009A810097F1F089819A8121E0FC01208328
:102F500089819A81FC011482138289819A812B8153
:102F60003C81FC013283218389819A812FE3FC011A
:102F7000268789819A81FC01178689819A810E941E
:102F8000AE0789819A810F900F900F900F90CF918B
:102F9000DF910895DF93CF93CDB7DEB728970FB6B3
:102FA000F894DEBF0FBECDBF9D838C836E835887A0
:102FB0004F838F819885009719F48C819D81BDC0C6
:102FC0008C819D81009741F48F81988524E0FC01DC
:102FD00020838C819D81B1C08C819D81FC01808189
:102FE000813041F08F81988521E0FC0120838C8124
:102FF0009D81A3C080919903882341F08F8198859A
:103000002FE0FC0120838C819D8197C0F8948C81F6
:103010009D81FC018581882319F081E0898301C0AD
:1030200019828E81882F90E0009729F081309105D8
:1030300009F441C075C08981882349F58C819D813F
:103040002FE3FC0126878C819D81FC0117868C81F2
:103050009D81FC0110822091A7043091A8048C81ED
:103060009D81FC01328321838C819D81FC0114822E
:1030700013828C819D819093A8048093A7047894F7
:103080008F819885FC0110821B821A8254C078942B
:103090008F81988529E4FC0120838C819D819B830D
:1030A0008A8349C08C819D8160E070E042E020E02D
:1030B0000E94F70501C000008C819D81FC01858183
:1030C000882381F78C819D812FE3FC0126878C81E9
:1030D0009D81FC0117868C819D81FC0110822091CD
:1030E000A7043091A8048C819D81FC013283218347
:1030F0008C819D81FC01148213828C819D8190932F
:10310000A8048093A70478948981813011F40E94E7
:103110008C098F819885FC0110821B821A820BC05A
:1031200078948F81988527E0FC0120838C819D8194
:103130009B838A8300008A819B8128960FB6F8942E
:10314000DEBF0FBECDBFCF91DF910895DF93CF9348
:10315000CDB7DEB729970FB6F894DEBF0FBECDBF4F
:103160009D838C837F836E83598748878885998563
:10317000009719F480E090E0BCC08C819D8100979D
:1031800041F48885998524E0FC01208380E090E06B
:10319000B0C08C819D81FC018081813041F08885A7
:1031A000998521E0FC01208380E090E0A2C080911D
:1031B0009903882341F08885998522E0FC012083CA
:1031C00080E090E096C080919C03882341F0888540
:1031D00099852DE0FC01208380E090E08AC0F8947E
:1031E0008C819D81FC01818192819A83898389816F
:1031F0009A81009769F08C819D81FC011282118275
:10320000789488859985FC01108289819A8171C0A2
:103210008091A9049091AA042091A9043091AA0454
:10322000F901218D2260FC01218F8091A9049091E8
:10323000AA04FC01128E8091A9049091AA042E8107
:103240003F81FC01308F278B8C819D810E94C906B4
:1032500078940E948C09F8948091A9049091AA0412
:10326000FC01828D882309F18091A9049091AA0420
:10327000FC01828D8B838C819D810E94490778940B
:103280008B81882F90E08230910531F08885998577
:103290002AE0FC01208306C0888599852EE0FC0188
:1032A0002083000080E090E024C08091A9049091E8
:1032B000AA04FC01848995899A8389838091A90451
:1032C0009091AA04FC01158A148A8091A904909116
:1032D000AA04FC01118E8091A9049091AA04FC011A
:1032E000138A128A789488859985FC0110828981D5
:1032F0009A8129960FB6F894DEBF0FBECDBFCF914D
:10330000DF910895DF93CF9300D000D000D0CDB7E8
:10331000DEB79B838A836C835E834D838D819E8120
:10332000009711F480E057C08A819B81009739F49F
:103330008D819E8124E0FC01208380E04CC08A8145
:103340009B81FC018081813039F08D819E8121E05B
:10335000FC01208380E03FC0F8948A819B81FC01BE
:103360008581882391F119828C81882F90E08130AA
:10337000910569F014C08A819B8160E070E042E0B1
:1033800022E00E94F70589818F5F898301C00000D8
:103390008A819B81FC018581882369F70CC08A8121
:1033A0009B8160E070E042E022E00E94F7058981A5
:1033B0008F5F8983000078940E948C098D819E81A3
:1033C0002EE0FC012083898106C078948D819E8146
:1033D000FC01108280E026960FB6F894DEBF0FBE87
:1033E000CDBFCF91DF910895DF93CF9300D000D070
:1033F000CDB7DEB79A8389837C836B8389819A8179
:10340000009711F484E036C08B819C81009711F401
:1034100083E030C089819A81FC018081813011F084
:1034200081E028C0F89489819A81FC0185818823F4
:1034300071F089819A812B813C81B90142E020E0C1
:103440000E94F70578940E948C0980E013C089815E
:103450009A81FC0181819281009719F0789484E12E
:1034600009C089819A812B813C81FC0132832183AF
:10347000789480E00F900F900F900F90CF91DF9194
:103480000895DF93CF9300D000D00F92CDB7DEB771
:103490009A8389837C836B834D8389819A8100978A
:1034A00011F484E055C08B819C81009711F483E076
:1034B0004FC089819A81FC018081813011F081E0C7
:1034C00047C0F89489819A81FC018581882369F13C
:1034D0008D81882F90E081709070882389F009C0D9
:1034E00089819A812B813C81B90142E020E00E94D0
:1034F000F70589819A81FC018581882389F709C0B4
:1035000089819A812B813C81B90142E020E00E94AF
:10351000F70578948D81882F90E0847090700097E3
:1035200011F40E948C0980E013C089819A81FC010A
:1035300081819281009719F0789484E109C0898192
:103540009A812B813C81FC0132832183789480E035
:103550000F900F900F900F900F90CF91DF910895E3
:10356000DF93CF93CDB7DEB729970FB6F894DEBFC0
:103570000FBECDBF9F838E83798768878E819F81A1
:10358000009711F484E047C088859985009711F46D
:1035900089E041C08E819F81FC018081813011F0E2
:1035A00081E039C0F8948E819F81FC012581888556
:1035B0009985FC0122878E819F8106969B838A8351
:1035C0008885998502969D838C83198215C08A818E
:1035D0009B81FC0120818C819D81FC0120838C8159
:1035E0009D8101969D838C838A819B8101969B831B
:1035F0008A8389818F5F89838981883040F38E81B6
:103600009F81FC012181328188859985FC0131836C
:103610002083789480E029960FB6F894DEBF0FBE21
:10362000CDBFCF91DF910895DF93CF9300D000D02D
:103630000F92CDB7DEB79B838A837D836C838C81A9
:103640009D81009711F480E07CC08A819B81009766
:1036500039F48C819D8124E0FC01208380E071C0DD
:103660008A819B81FC018081843039F08C819D812D
:1036700021E0FC01208380E064C0809199038823CD
:1036800039F08C819D8122E0FC01208380E059C0CB
:10369000F8948A819B81FC0183819481892F9927E9
:1036A00089838A819B81FC018381948190708F3F03
:1036B000910509F040C08A819B81FC01838194813E
:1036C0009C0120708A819B81FC01348323838A8141
:1036D0009B81FC01238134818091A9049091AA04EB
:1036E000FC01838D882F90E0282B392B8A819B81C8
:1036F000FC01348323832091A9043091AA048A8198
:103700009B81FC01328321838091A9049091AA04BA
:10371000FC01938D8981891738F078948C819D8183
:1037200028E7FC01208305C078948C819D81FC01F1
:10373000108281E006C078948C819D81FC0110820A
:1037400080E00F900F900F900F900F90CF91DF912E
:103750000895DF93CF9300D000D00F92CDB7DEB79E
:103760008B837D836C838C819D81009719F480E02D
:1037700090E08BC08B818F3340F08C819D812AE259
:10378000FC01208380E090E080C080919903882331
:1037900041F08C819D8120E1FC01208380E090E05C
:1037A00074C0F8948B81882F90E0880F991F8B5EEE
:1037B000964FFC0180819181009749F078948C812B
:1037C0009D8128E2FC01208380E090E05EC08B8137
:1037D000882F90E0880F991F8B5E964F21E030E094
:1037E000FC01318320838091A7049091A8049A83DF
:1037F000898389819A81009799F48B81882F90E041
:10380000880F991F8B5E964FFC011182108278946D
:103810008C819D8124E0FC01208389819A8135C0BF
:103820008091A7049091A804FC01818192819093DA
:10383000A8048093A704789489819A8124E0FC01EC
:1038400020838B81882F90E0982F88279C012F6FF1
:1038500089819A81FC013483238389819A81FC01C7
:103860001282118289819A812FE3FC012687898146
:103870009A81FC01178689819A810E94AE078C810A
:103880009D81FC01108289819A810F900F900F9089
:103890000F900F90CF91DF910895DF93CF93CDB725
:1038A000DEB72C970FB6F894DEBF0FBECDBF998759
:1038B00088876A875C874B878B859C85009719F47E
:1038C0008885998509C188859985009741F48B85FC
:1038D0009C8524E0FC01208388859985FDC088852E
:1038E0009985FC018081843041F08B859C8521E0A5
:1038F000FC01208388859985EFC0809199038823F6
:1039000041F08B859C852FE0FC012083888599857B
:10391000E3C0F89488859985FC018581882319F096
:1039200081E0898301C019828A85882F90E0009701
:1039300029F08130910509F44AC0C1C089818823EA
:10394000D9F5888599852FE3FC0126878885998597
:10395000FC01178688859985FC0183819481892FD4
:1039600099278C838C81882F90E0880F991F8B5E1C
:10397000964FFC011182108288859985FC01108286
:103980002091A7043091A80488859985FC01328391
:10399000218388859985FC01148213828885998505
:1039A0009093A8048093A70478948B859C85FC0150
:1039B00010821B821A828EC078948B859C8529E4A4
:1039C000FC012083888599859B838A8383C08885B1
:1039D0009985FC0183819481892F99278C8388851F
:1039E0009985FC01838194818D8388859985FC016B
:1039F000818192819F838E838E819F810097B1F018
:103A00008E819F81FC01938D8C81981789F48E8122
:103A10009F816D810E94F4200CC08885998560E0AB
:103A200070E040E120E00E94F70503C0000001C003
:103A3000000088859985FC018581882371F7888538
:103A400099852FE3FC01268788859985FC011786D7
:103A500088859985FC0183819481892F99278C839E
:103A60008C81882F90E0880F991F8B5E964FFC0108
:103A70001182108288859985FC0110822091A7040B
:103A80003091A80488859985FC013283218388853B
:103A90009985FC0114821382888599859093A804E6
:103AA0008093A70478948981813011F40E948C0955
:103AB0008B859C85FC0110821B821A820BC0789436
:103AC0008B859C8527E0FC012083888599859B83D5
:103AD0008A8300008A819B812C960FB6F894DEBF02
:103AE0000FBECDBFCF91DF910895DF93CF93CDB7B8
:103AF000DEB72F970FB6F894DEBF0FBECDBF9B8702
:103B00008A877D876C875F874E878E859F85009724
:103B100009F422C28A859B85009731F48E859F85A2
:103B200024E0FC01208319C28A859B85FC018081E9
:103B3000843031F08E859F8521E0FC0120830DC209
:103B400080919903882331F08E859F8522E0FC01C6
:103B5000208303C280919C03882331F08E859F854A
:103B60002DE0FC012083F9C1F8948A859B85FC0136
:103B700083819481892F99278A838A859B85FC017B
:103B8000838194818F3F09F03FC08A859B85FC012A
:103B9000838194819C0120708A859B85FC013483FC
:103BA00023838A859B85FC01238134818091A9042C
:103BB0009091AA04FC01838D882F90E0282B392B4B
:103BC0008A859B85FC01348323832091A90430914D
:103BD000AA048A859B85FC01328321838091A904F4
:103BE0009091AA04FC01938D8A81891738F078940A
:103BF0008E859F8528E7FC012083AFC178948E8550
:103C00009F85FC011082A9C18A859B85FC01838167
:103C100094818B838A859B85FC01818192819D8320
:103C20008C838C819D81FC01938D8A81891708F09A
:103C30003BC18091A9049091AA04FC01938D8B81D2
:103C4000981708F031C18C819D81FC01858D8E8390
:103C50008E81882F90E081569B4FFC0120818C81C2
:103C60009D81FC01868D8223882361F18E81882FBE
:103C700090E02E81222F30E021563B4FF901208128
:103C8000422F2C813D81F901268D209524238156D8
:103C90009B4FFC0120838E81882F90E081569B4FA3
:103CA000FC018081882359F48C819D81FC01878DE2
:103CB000982F909580919E04892380939E0481E0A3
:103CC000898349C08C819D81FC0182899389988771
:103CD0008F838F8198850097E9F18C819D81FC010C
:103CE000858D882F90E02C813D81F901258D222F33
:103CF00030E04F815885240F351F2A5F3F4FF9016F
:103D00002081422F2C813D81F901268D209524238D
:103D1000422F2F813885280F391F2A5F3F4FF90125
:103D200040832F813885820F931F0696FC01808186
:103D3000882381F48F819885FC018581282F8C81CF
:103D40009D81FC01878D80958223282F8F81988506
:103D5000FC01258319828C819D812A81FC01238F9E
:103D60008C819D81FC01838D282F26952695269593
:103D70008C819D81FC01258F8C819D81FC01838D2F
:103D8000282F27708C819D81FC01248F8C819D813F
:103D9000FC01858D282F30E081E090E002C0880F83
:103DA000991F2A95E2F7282F8C819D81FC01278F8E
:103DB0008C819D81FC01848D282F30E081E090E092
:103DC00002C0880F991F2A95E2F7282F8C819D81C8
:103DD000FC01268F8981813019F58C819D81FC0140
:103DE000978D80919E04892B80939E048C819D8168
:103DF000FC01858D882F90E02C813D81F901258D76
:103E0000222F30E021563B4FF90140812C813D812A
:103E1000F901268D242B81569B4FFC01208338C04D
:103E20008C819D81FC018289938998878F838F8102
:103E30009885009769F18F819885FC0125818C8197
:103E40009D81FC01878D282B8F819885FC0125831E
:103E50008C819D81FC01858D882F90E02C813D8196
:103E6000F901258D222F30E04F815885240F351F11
:103E70002A5F3F4FF90140812C813D81F901268D58
:103E8000422B2F813885820F931F0696FC014083B9
:103E90008A81882F90E0880F991F8B5E964F2C8126
:103EA0003D81FC01318320838091A9049091AA0473
:103EB0002091A9043091AA04F901218D2061FC010F
:103EC000218F8091A9049091AA04FC01128E809107
:103ED000A9049091AA042C853D85FC01308F278B85
:103EE0008A859B850E94C90678940E948C09F89463
:103EF0008091A9049091AA04FC01828D8823F9F095
:103F00008091A9049091AA04FC01828D89878A85F9
:103F10009B850E94490778948985882F90E082309C
:103F2000910531F08E859F852AE0FC01208306C033
:103F30008E859F852EE0FC01208300000EC08091BD
:103F4000A9049091AA04FC01138A128A78948E85A0
:103F50009F85FC01108201C000002F960FB6F894D7
:103F6000DEBF0FBECDBFCF91DF910895DF93CF931A
:103F700000D000D0CDB7DEB79C838B8380919903AE
:103F8000882311F085E0A4C08B819C81009711F4F7
:103F900084E09EC08B819C81FC018081843011F083
:103FA00081E096C0F8948B819C81FC01838194818F
:103FB000892F992789838B819C81FC01838194813E
:103FC0008A838B819C81FC01818192819C018091FB
:103FD000A9049091AA042817390719F0789484E667
:103FE00077C08091A9049091AA04FC01938D8981E6
:103FF000981739F48091A9049091AA046A810E94CB
:10400000F4208981882F90E0880F991F8B5E964F4E
:1040100021E030E0FC01318320838B819C81FC0115
:104020008581882309F441C08B819C8160E070E028
:1040300040E120E00E94F7058A838B819C81FC018E
:10404000838194819C0120708B819C81FC0134834D
:1040500023838B819C81FC01238134818A81882F79
:1040600090E0282B392B8B819C81FC0134832383A6
:104070008A81882F90E0880F991F8B5E964FFC01F4
:10408000208131818B819C81FC01328321839A8143
:104090008981891728F078940E948C0988E718C0D4
:1040A00078940E948C0980E013C08B819C81FC0174
:1040B000838194819C012F6F8B819C81FC013483CF
:1040C00023838B819C81FC0112821182789480E091
:1040D0000F900F900F900F90CF91DF910895DF9385
:1040E000CF93CDB7DEB729970FB6F894DEBF0FBEDA
:1040F000CDBF9F838E8379876887809199038823BA
:1041000011F086E068C08E819F81009711F484E0F1
:1041100062C088859985009711F489E05CC08E8122
:104120009F81FC018081843011F081E054C0F894BB
:104130008E819F81FC0183819481892F9927282F6B
:1041400088859985FC0123878E819F81FC0183816D
:104150009481282F88859985FC01228788859985F7
:10416000FC0182858F3F31F48885998521E0FC012F
:10417000218704C088859985FC0111868E819F81E5
:10418000FC01258188859985FC0120878E819F818E
:1041900006969B838A83888599859D838C83198263
:1041A00015C08A819B81FC0120818C819D81FC014D
:1041B00020838C819D8101969D838C838A819B8144
:1041C00001969B838A8389818F5F89838981883067
:1041D00040F3789480E029960FB6F894DEBF0FBEC6
:1041E000CDBFCF91DF910895DF93CF9300D000D062
:1041F000CDB7DEB79B838A836C838A819B81FC0168
:10420000858D89838981882F90E02981222F30E054
:1042100021563B4FF9012081422F2A813B81F90130
:10422000268D2095242381569B4FFC012083898174
:10423000882F90E081569B4FFC018081882359F4A0
:104240008A819B81FC01878D982F909580919E0497
:10425000892380939E048A819B812C81FC01238F7A
:104260008C81869586958695282F27708A819B81DB
:10427000FC01258F8C81282F27708A819B81FC016E
:10428000248F8A819B81FC01858D282F30E081E07D
:1042900090E002C0880F991F2A95E2F7282F8A81A3
:1042A0009B81FC01278F8A819B81FC01848D282FB3
:1042B00030E081E090E002C0880F991F2A95E2F774
:1042C000282F8A819B81FC01268F8A819B81FC019A
:1042D000978D80919E04892B80939E048A819B8177
:1042E000FC01858D882F90E02A813B81F901258D85
:1042F000222F30E021563B4FF90140812A813B813A
:10430000F901268D242B81569B4FFC0120838C8143
:10431000882F90E0880F991F8B5E964F2A813B81F2
:10432000FC01318320830F900F900F900F90CF915D
:10433000DF910895DF93CF93CDB7DEB728970FB6FF
:10434000F894DEBF0FBECDBF9E838D8378876F83C9
:104350008F819885009719F480E090E06EC08D8180
:104360009E81009741F48F81988524E0FC01208391
:1043700080E090E062C08D819E81FC01808182306E
:1043800041F08F81988521E0FC01208380E090E05E
:1043900054C0F8948D819E81FC01818192819C831F
:1043A0008B838B819C81FC01848595850097D9F155
:1043B0008B819C81FC0180859185FC01208131816C
:1043C0003A8329839C012E5F3F4F8B819C81FC01A6
:1043D000318720878B819C81FC01848595859C0198
:1043E000215030408B819C81FC01358724878B8153
:1043F0009C81FC01208531858B819C81FC0184811D
:1044000095812817390751F48B819C81FC01228109
:1044100033818B819C81FC01318720878F81988536
:10442000FC01108207C08F8198852FE1FC01208359
:104430001A821982789489819A8128960FB6F89405
:10444000DEBF0FBECDBFCF91DF910895DF93CF9335
:10445000CDB7DEB728970FB6F894DEBF0FBECDBF3D
:104460009E838D8378876F8380919903882319F0C9
:1044700080E090E097C0F8948091A7049091A80400
:104480009A8389838091A7049091A804009759F09A
:104490008091A7049091A804FC018181928190935E
:1044A000A8048093A704789489819A81009709F4DD
:1044B00077C0F89480919C0490919D049C838B8399
:1044C0008B819C81009709F459C080919C04909144
:1044D0009D04FC018081918190939D0480939C04B4
:1044E00078948B819C812D813E81FC0133832283D2
:1044F0008F819885880F991F2D813E81280F391F44
:104500008B819C81FC01358324838B819C812D814F
:104510003E81FC01378326838B819C812D813E81E6
:10452000FC01318720878B819C812F813885FC019C
:10453000338722878B819C81FC01158614868981B3
:104540009A8122E0FC01208389819A81FC011482F6
:10455000138289819A812B813C81FC0132832183E2
:1045600089819A812FE3FC01268789819A81FC0148
:10457000178689819A810E94AE0712C02091A704F4
:104580003091A80489819A81FC0132832183898139
:104590009A819093A8048093A70478941A82198230
:1045A00089819A8128960FB6F894DEBF0FBECDBFE1
:1045B000CF91DF910895DF93CF93CDB7DEB72A97E0
:1045C0000FB6F894DEBF0FBECDBF9F838E83688782
:1045D0005A87498789859A85009719F48E819F812A
:1045E000EAC08E819F81009741F489859A8524E0F5
:1045F000FC0120838E819F81DEC08E819F81FC0122
:104600008081823041F089859A8521E0FC012083F8
:104610008E819F81D0C080919903882341F0898544
:104620009A852FE0FC0120838E819F81C4C0F8947D
:104630008E819F81FC018581882319F081E0898327
:1046400001C019828885882F90E0009729F0813079
:10465000910509F458C0A2C08981882309F03FC0A0
:104660008E819F812FE3FC0126878E819F81FC0133
:1046700017868E819F81FC01818192819D838C832D
:1046800020919C0430919D048C819D81FC0131839B
:1046900020838C819D8190939D0480939C048E81C6
:1046A0009F81FC0110822091A7043091A8048E8183
:1046B0009F81FC01328321838E819F81FC011482C2
:1046C00013828E819F819093A8048093A70478948D
:1046D00089859A85FC0110821B821A826AC07894AF
:1046E00089859A8529E4FC0120838E819F819B83A3
:1046F0008A835FC08E819F8160E070E044E020E0AB
:104700000E94F70501C000008E819F81FC01858118
:10471000882381F78E819F812FE3FC0126878E817C
:104720009F81FC0117868E819F81FC01818192818E
:104730009D838C8320919C0430919D048C819D816C
:10474000FC01318320838C819D8190939D04809313
:104750009C048E819F81FC0110822091A7043091DE
:10476000A8048E819F81FC01328321838E819F81E9
:10477000FC01148213828E819F819093A804809300
:10478000A70478948981813011F40E948C0989856D
:104790009A85FC0110821B821A820BC0789489854D
:1047A0009A8527E0FC0120838E819F819B838A83E9
:1047B00000008A819B812A960FB6F894DEBF0FBE57
:1047C000CDBFCF91DF910895DF93CF9300D000D07C
:1047D000CDB7DEB79C838B838B819C81009711F4CE
:1047E00084E02BC08B819C81FC018081823011F0A0
:1047F00081E023C0F8948B819C81FC0181819281AE
:104800009A83898389819A81FC01228133818981FC
:104810009A81FC013783268389819A81FC01228158
:10482000338189819A81FC013187208789819A812E
:10483000FC0115861486789480E00F900F900F90FD
:104840000F90CF91DF910895DF93CF93CDB7DEB76F
:104850002B970FB6F894DEBF0FBECDBF9F838E831C
:10486000798768875B874A878A859B85009719F4D3
:1048700080E090E0F1C08E819F81009741F48A85AD
:104880009B8524E0FC01208380E090E0E5C08E81E0
:104890009F81FC018081823041F08A859B8521E0E7
:1048A000FC01208380E090E0D7C0809199038823A9
:1048B00041F08A859B8522E0FC01208380E090E026
:1048C000CBC080919C03882341F08A859B852DE095
:1048D000FC01208380E090E0BFC0F8948E819F812E
:1048E000FC01818192819A83898389819A81FC016B
:1048F00084859585009709F43EC089819A81FC01E1
:1049000080859185FC01208131813C832B839C0132
:104910002E5F3F4F89819A81FC01318720878981F1
:104920009A81FC01848595859C01215030408981C4
:104930009A81FC013587248789819A81FC01208531
:10494000318589819A81FC018481958128173907F5
:1049500051F489819A81FC012281338189819A8174
:10496000FC013187208778948A859B85FC01108221
:104970008B819C8171C08091A9049091AA0420919F
:10498000A9043091AA04F901218D2460FC01218F32
:104990008091A9049091AA04FC01128E8091A9042F
:1049A0009091AA0428853985FC01308F278B8E8150
:1049B0009F810E94C90678940E948C09F894809186
:1049C000A9049091AA04FC01828D882309F18091A9
:1049D000A9049091AA04FC01828D8D838E819F8110
:1049E0000E94490778948D81882F90E0823091054C
:1049F00031F08A859B852AE0FC01208306C08A85E8
:104A00009B852EE0FC012083000080E090E024C024
:104A10008091A9049091AA04FC01848995899C83C2
:104A20008B838091A9049091AA04FC01158A148AB1
:104A30008091A9049091AA04FC01118E8091A9048F
:104A40009091AA04FC01138A128A78948A859B8526
:104A5000FC0110828B819C812B960FB6F894DEBFEF
:104A60000FBECDBFCF91DF910895DF93CF9300D0DC
:104A700000D000D0CDB7DEB79B838A836C835E8382
:104A80004D838D819E81009711F480E057C08A810B
:104A90009B81009739F48D819E8124E0FC01208365
:104AA00080E04CC08A819B81FC018081823039F09A
:104AB0008D819E8121E0FC01208380E03FC0F8943D
:104AC0008A819B81FC018581882391F119828C81E7
:104AD000882F90E08130910569F014C08A819B8114
:104AE00060E070E044E022E00E94F70589818F5F7A
:104AF000898301C000008A819B81FC018581882314
:104B000069F70CC08A819B8160E070E044E022E09C
:104B10000E94F70589818F5F8983000078940E9445
:104B20008C098D819E812EE0FC012083898106C045
:104B300078948D819E81FC01108280E026960FB6CC
:104B4000F894DEBF0FBECDBFCF91DF910895DF9304
:104B5000CF9300D000D000D0CDB7DEB79C838B833D
:104B60007E836D838B819C81009711F484E06CC0FF
:104B70008B819C81FC018081823011F081E064C0D6
:104B8000F8948B819C81FC018581882371F08B8155
:104B90009C812D813E81B90144E020E00E94F7050F
:104BA00078940E948C0980E04FC08B819C81FC012D
:104BB000818192819A83898389819A81FC012485EC
:104BC000358589819A81FC0182859385281739076B
:104BD00018F078948EE138C089819A81FC01868131
:104BE00097812D813E81FC01318320839C012E5FC2
:104BF0003F4F89819A81FC013783268389819A817D
:104C0000FC01848595859C012F5F3F4F89819A81A6
:104C1000FC013587248789819A81FC0126813781AF
:104C200089819A81FC01848195812817390751F483
:104C300089819A81FC012281338189819A81FC01D9
:104C400037832683789480E026960FB6F894DEBFEB
:104C50000FBECDBFCF91DF910895DF93CF9300D0EA
:104C600000D000D0CDB7DEB79C838B837E836D836D
:104C70008B819C81009711F484E071C08B819C81B1
:104C8000FC018081823011F081E069C0F8948B8151
:104C90009C81FC018581882371F08B819C812D8111
:104CA0003E81B90144E020E00E94F70578940E941B
:104CB0008C0980E054C08B819C81FC0181819281B0
:104CC0009A83898389819A81FC012485358589812C
:104CD0009A81FC01828593852817390718F078940A
:104CE0008EE13DC089819A81FC01208531858981D1
:104CF0009A81FC01828193812817390751F48981B7
:104D00009A81FC012481358189819A81FC01318756
:104D1000208789819A81FC01808591859C012250A0
:104D2000304089819A81FC013187208789819A816D
:104D3000FC01808591852D813E81FC01318320839A
:104D400089819A81FC01848595859C012F5F3F4F65
:104D500089819A81FC0135872487789480E02696A2
:104D60000FB6F894DEBF0FBECDBFCF91DF9108958F
:104D7000DF93CF93CDB7DEB727970FB6F894DEBF9A
:104D80000FBECDBF9C838B837E836D834F838B81CE
:104D90009C81009711F484E0C1C08B819C81FC014F
:104DA0008081823011F081E0B9C0F8948B819C81C0
:104DB000FC018581882369F18F81882F90E08170C3
:104DC0009070882389F009C08B819C812D813E8160
:104DD000B90144E020E00E94F7058B819C81FC0131
:104DE0008581882389F709C08B819C812D813E8133
:104DF000B90144E020E00E94F70578948F81882F64
:104E000090E084709070009711F40E948C0980E00B
:104E100085C08B819C81FC01818192819A838983E9
:104E200089819A81FC012485358589819A81FC01DB
:104E3000828593852817390718F078948EE16EC023
:104E40008F81882F90E082709070009779F189812E
:104E50009A81FC012085318589819A81FC018281BA
:104E600093812817390751F489819A81FC012481A3
:104E7000358189819A81FC013187208789819A81D6
:104E8000FC01808591859C012250304089819A8166
:104E9000FC013187208789819A81FC018085918579
:104EA0002D813E81FC013183208329C089819A8133
:104EB000FC01868197812D813E81FC013183208315
:104EC0009C012E5F3F4F89819A81FC0137832683A5
:104ED00089819A81FC012681378189819A81FC012F
:104EE000848195812817390751F489819A81FC01C1
:104EF0002281338189819A81FC01378326838981CC
:104F00009A81FC01848595859C012F5F3F4F8981A3
:104F10009A81FC0135872487789480E027960FB624
:104F2000F894DEBF0FBECDBFCF91DF910895DF9320
:104F3000CF93CDB7DEB72B970FB6F894DEBF0FBE79
:104F4000CDBF998788877B876A87888599850097F1
:104F500011F484E072C08A859B85009711F489E082
:104F60006CC088859985FC018081823011F081E0D8
:104F700064C0F89488859985FC0125818A859B8584
:104F8000FC0126878885998506969B838A838A8576
:104F90009B8506969D838C83198215C08A819B818F
:104FA000FC0120818C819D81FC0120838C819D816D
:104FB00001969D838C838A819B8101969B838A8342
:104FC00089818F5F89838981883040F388859985BD
:104FD000FC01818192819F838E838E819F81FC0160
:104FE00084859585009771F08E819F81FC01808575
:104FF0009185FC01208131818A859B85FC0131836B
:10500000208305C08A859B85FC01118210828E81D8
:105010009F81FC01248535858A859B85FC0133832E
:1050200022838E819F81FC01228533858A859B8521
:10503000FC0135832483789480E02B960FB6F89496
:10504000DEBF0FBECDBFCF91DF910895DF93CF9329
:1050500000D000D000D0CDB7DEB782E694E068E3A0
:1050600070E00E94360982E694E09C838B8380E79F
:1050700094E09E838D831A82198216C08B819C8155
:105080002D813E81FC01318320838B819C810E9692
:105090009C838B838D819E810E969E838D838981D7
:1050A0009A8101969A83898389819A8183309105B7
:1050B00028F38B819C81FC011182108282E694E0AE
:1050C00090939D0480939C0426960FB6F894DEBFBF
:1050D0000FBECDBFCF91DF910895DF93CF9300D066
:1050E00000D0CDB7DEB79C838B838B819C810097EA
:1050F00019F480E090E025C08B819C81FC018081C7
:10510000833019F080E090E01CC0F8948B819C8182
:10511000FC01838194819A83898389819A81009794
:1051200069F08B819C81FC01838194819C012150D9
:1051300030408B819C81FC01348323837894898166
:105140009A810F900F900F900F90CF91DF9108955B
:10515000DF93CF9300D000D0CDB7DEB79C838B8395
:1051600080919903882319F080E090E03DC0F89485
:105170008091A7049091A8049A8389838091A704C1
:105180009091A804009759F08091A7049091A804E9
:10519000FC01818192819093A8048093A704789464
:1051A00089819A810097F1F089819A8123E0FC013D
:1051B000208389819A812B813C81FC013483238364
:1051C00089819A81FC011282118289819A812FE35F
:1051D000FC01268789819A81FC01178689819A8141
:1051E0000E94AE0789819A810F900F900F900F90C7
:1051F000CF91DF910895DF93CF93CDB7DEB7289796
:105200000FB6F894DEBF0FBECDBF9D838C836E8337
:1052100058874F838F819885009719F48C819D81E1
:10522000BDC08C819D81009741F48F81988524E0D9
:10523000FC0120838C819D81B1C08C819D81FC010A
:105240008081833041F08F81988521E0FC012083AB
:105250008C819D81A3C080919903882341F08F8127
:1052600098852FE0FC0120838C819D8197C0F89464
:105270008C819D81FC018581882319F081E08983DF
:1052800001C019828E81882F90E0009729F081302B
:10529000910509F441C075C08981882349F58C8145
:1052A0009D812FE3FC0126878C819D81FC0117865F
:1052B0008C819D81FC0110822091A7043091A8046B
:1052C0008C819D81FC01328321838C819D81FC0135
:1052D000148213828C819D819093A8048093A704EB
:1052E00078948F819885FC0110821B821A8254C0A9
:1052F00078948F81988529E4FC0120838C819D819D
:105300009B838A8349C08C819D8160E070E041E08D
:1053100020E00E94F70501C000008C819D81FC0106
:105320008581882381F78C819D812FE3FC0126876D
:105330008C819D81FC0117868C819D81FC011082EE
:105340002091A7043091A8048C819D81FC013283B7
:1053500021838C819D81FC01148213828C819D812B
:105360009093A8048093A70478948981813011F4E4
:105370000E948C098F819885FC0110821B821A8201
:105380000BC078948F81988527E0FC0120838C8165
:105390009D819B838A8300008A819B8128960FB61A
:1053A000F894DEBF0FBECDBFCF91DF910895DF939C
:1053B000CF93CDB7DEB727970FB6F894DEBF0FBEF9
:1053C000CDBF9B838A837D836C835F834E838E8175
:1053D0009F81009709F49DC08A819B81009731F4D9
:1053E0008E819F8124E0FC01208394C08A819B816F
:1053F000FC018081833031F08E819F8121E0FC01AE
:10540000208388C080919903882331F08E819F8109
:1054100022E0FC0120837EC080919C03882331F030
:105420008E819F812DE0FC01208374C0F8948A81D5
:105430009B81FC0183819481009799F08A819B81F3
:10544000FC01838194819C01215030408A819B81A1
:10545000FC013483238378948E819F81FC01108228
:1054600059C08091A9049091AA042091A904309177
:10547000AA04F901218D2160FC01218F8091A904EA
:105480009091AA04FC01128E8091A9049091AA0423
:105490002C813D81FC01308F278B8A819B810E946A
:1054A000C90678940E948C09F8948091A90490917F
:1054B000AA04FC01828D8823F9F08091A9049091BF
:1054C000AA04FC01828D89838A819B810E944907FD
:1054D00078948981882F90E08230910531F08E8117
:1054E0009F812AE0FC01208306C08E819F812EE0EF
:1054F000FC01208300000EC08091A9049091AA04B1
:10550000FC01138A128A78948E819F81FC0110829B
:1055100001C0000027960FB6F894DEBF0FBECDBFC6
:10552000CF91DF910895DF93CF9300D000D000D0CA
:10553000CDB7DEB79B838A836C835E834D838D8179
:105540009E81009711F480E057C08A819B8100976B
:1055500039F48D819E8124E0FC01208380E04CC0E1
:105560008A819B81FC018081833039F08D819E810D
:1055700021E0FC01208380E03FC0F8948A819B8178
:10558000FC018581882391F119828C81882F90E01C
:105590008130910569F014C08A819B8160E070E0E0
:1055A00041E022E00E94F70589818F5F898301C075
:1055B00000008A819B81FC018581882369F70CC0EA
:1055C0008A819B8160E070E041E022E00E94F70563
:1055D00089818F5F8983000078940E948C098D8176
:1055E0009E812EE0FC012083898106C078948D8104
:1055F0009E81FC01108280E026960FB6F894DEBFF3
:105600000FBECDBFCF91DF910895DF93CF9300D030
:10561000CDB7DEB79A83898389819A81009711F487
:1056200084E037C089819A81FC018081833011F048
:1056300081E02FC0F89489819A81FC0185818823BB
:1056400069F089819A8160E070E041E020E00E9489
:10565000F70578940E948C0980E01BC089819A81AB
:10566000FC0183819481FFEF8F3F9F0781F0898147
:105670009A81FC01838194819C012F5F3F4F898136
:105680009A81FC0134832383789480E002C078946B
:1056900082E30F900F90CF91DF910895DF93CF9326
:1056A000CDB7DEB729970FB6F894DEBF0FBECDBFDA
:1056B0009F838E83798768878E819F81009711F4FD
:1056C00084E047C088859985009711F489E041C03E
:1056D0008E819F81FC018081833011F081E039C08F
:1056E000F8948E819F81FC01258188859985FC0134
:1056F00022878E819F8106969A83898388859985E2
:1057000002969C838B831D8215C089819A81FC013E
:1057100020818B819C81FC0120838B819C8101965F
:105720009C838B8389819A8101969A8389838D8159
:105730008F5F8D838D81883040F38E819F81FC0146
:105740002381348188859985FC0131832083789475
:1057500080E029960FB6F894DEBF0FBECDBFCF9183
:10576000DF910895DF93CF9300D000D000D0CDB764
:10577000DEB79A8389837C836B835E834D838D81BF
:105780009E81009709F43FC089819A81009731F486
:105790008D819E8124E0FC01208336C089819A811D
:1057A000FC018081833031F08D819E8121E0FC01FC
:1057B00020832AC0F8948D819E81FC01108289810A
:1057C0009A81FC0183819481009741F089819A81BB
:1057D0002B813C81FC013483238313C089819A810E
:1057E000FC018581882341F489819A812B813C8148
:1057F000FC013483238305C08D819E8129E4FC0153
:105800002083789401C0000026960FB6F894DEBF7E
:105810000FBECDBFCF91DF910895AF92BF92CF92CF
:10582000DF92EF92FF920F931F93DF93CF93CDB749
:10583000DEB72A970FB6F894DEBF0FBECDBF9D83AB
:105840008C837F836E83598748872A878A85803433
:1058500010F08AE25CC0F89480919903882319F0D3
:1058600078948CE354C08A85882F90E0880F991F24
:105870008B5E964FFC0180819181009709F045C0B5
:105880008A85882F90E0880F991F8B5E964F21E0C4
:1058900030E0FC013183208378948C819D814E819E
:1058A0005F8128853985BA01A90120E030E00E9496
:1058B000D40C9A83898329813A818A85B90140E091
:1058C00050E020E030E0EE24FF248701CC24DD24EA
:1058D000AA24BB240E94630A8B838B81882339F41A
:1058E00080919D03813079F40E948C090CC0F8945A
:1058F0008A85882F90E0880F991F8B5E964FFC0158
:105900001182108278948B8102C0789488E22A9662
:105910000FB6F894DEBF0FBECDBFCF91DF911F91C0
:105920000F91FF90EF90DF90CF90BF90AF900895D0
:105930008F929F92AF92BF92CF92DF92EF92FF929F
:105940000F931F93DF93CF93CDB7DEB764970FB656
:10595000F894DEBF0FBECDBF9D838C837F836E83A3
:10596000598748872A871C870B87FE86ED86AF8676
:10597000B88AC98ADA8A9C8A8B8A8A85803410F030
:105980008AE25CC0F89480919903882319F0789496
:105990008CE354C08A85882F90E0880F991F8B5E16
:1059A000964FFC0180819181009709F045C08A855E
:1059B000882F90E0880F991F8B5E964F21E030E092
:1059C000FC013183208378948C819D816E817F815D
:1059D000488559852BA13CA10E94D40C9A838983C8
:1059E00069817A814D855E852B853C85EF84F888B9
:1059F00009891A89AB89BC89EBA1FCA18A856D0153
:105A00005F010E94630A8B838B81882339F4809124
:105A10009D03813079F40E948C090CC0F8948A852A
:105A2000882F90E0880F991F8B5E964FFC011182A2
:105A3000108278948B8102C0789488E264960FB6C5
:105A4000F894DEBF0FBECDBFCF91DF911F910F91B4
:105A5000FF90EF90DF90CF90BF90AF909F908F908E
:105A60000895DF93CF93CDB7DEB728970FB6F8949C
:105A7000DEBF0FBECDBF8C837E836D8358874F837F
:105A80008F819885009711F480E064C08C81803408
:105A900050F08C818F3F39F08F8198852AE2FC018C
:105AA000208380E057C08D819E81009739F48F81DB
:105AB00098852CE0FC01208380E04CC08091990304
:105AC000882339F08F81988521E1FC01208380E0D3
:105AD00041C0F8948C818F3F39F48091A904909152
